{
  "contractName": "OrisNFTOwnerShip",
  "abi": [
    {
      "anonymous": false,
      "inputs": [
        {
          "indexed": true,
          "internalType": "address",
          "name": "_owner",
          "type": "address"
        },
        {
          "indexed": true,
          "internalType": "address",
          "name": "_approved",
          "type": "address"
        },
        {
          "indexed": true,
          "internalType": "uint256",
          "name": "_tokenId",
          "type": "uint256"
        }
      ],
      "name": "Approval",
      "type": "event"
    },
    {
      "anonymous": false,
      "inputs": [
        {
          "indexed": false,
          "internalType": "uint256",
          "name": "id",
          "type": "uint256"
        },
        {
          "indexed": false,
          "internalType": "string",
          "name": "name",
          "type": "string"
        }
      ],
      "name": "NewOrisNft",
      "type": "event"
    },
    {
      "anonymous": false,
      "inputs": [
        {
          "indexed": true,
          "internalType": "address",
          "name": "previousOwner",
          "type": "address"
        },
        {
          "indexed": true,
          "internalType": "address",
          "name": "newOwner",
          "type": "address"
        }
      ],
      "name": "OwnershipTransferred",
      "type": "event"
    },
    {
      "anonymous": false,
      "inputs": [
        {
          "indexed": true,
          "internalType": "address",
          "name": "_from",
          "type": "address"
        },
        {
          "indexed": true,
          "internalType": "address",
          "name": "_to",
          "type": "address"
        },
        {
          "indexed": true,
          "internalType": "uint256",
          "name": "_tokenId",
          "type": "uint256"
        }
      ],
      "name": "Transfer",
      "type": "event"
    },
    {
      "inputs": [
        {
          "internalType": "string",
          "name": "_name",
          "type": "string"
        }
      ],
      "name": "createOrisNft",
      "outputs": [],
      "stateMutability": "nonpayable",
      "type": "function"
    },
    {
      "inputs": [
        {
          "internalType": "uint256",
          "name": "_tokenId",
          "type": "uint256"
        }
      ],
      "name": "detailNft",
      "outputs": [
        {
          "components": [
            {
              "internalType": "string",
              "name": "name",
              "type": "string"
            }
          ],
          "internalType": "struct NFTFactory.OrisNFT",
          "name": "",
          "type": "tuple"
        }
      ],
      "stateMutability": "view",
      "type": "function"
    },
    {
      "inputs": [],
      "name": "isOwner",
      "outputs": [
        {
          "internalType": "bool",
          "name": "",
          "type": "bool"
        }
      ],
      "stateMutability": "view",
      "type": "function"
    },
    {
      "inputs": [
        {
          "internalType": "address",
          "name": "_address",
          "type": "address"
        }
      ],
      "name": "listOrisNftOf",
      "outputs": [
        {
          "components": [
            {
              "internalType": "string",
              "name": "name",
              "type": "string"
            }
          ],
          "internalType": "struct NFTFactory.OrisNFT[]",
          "name": "",
          "type": "tuple[]"
        }
      ],
      "stateMutability": "view",
      "type": "function"
    },
    {
      "inputs": [
        {
          "internalType": "uint256",
          "name": "",
          "type": "uint256"
        }
      ],
      "name": "orisNftToOwner",
      "outputs": [
        {
          "internalType": "address",
          "name": "",
          "type": "address"
        }
      ],
      "stateMutability": "view",
      "type": "function"
    },
    {
      "inputs": [],
      "name": "owner",
      "outputs": [
        {
          "internalType": "address",
          "name": "",
          "type": "address"
        }
      ],
      "stateMutability": "view",
      "type": "function"
    },
    {
      "inputs": [],
      "name": "renounceOwnership",
      "outputs": [],
      "stateMutability": "nonpayable",
      "type": "function"
    },
    {
      "inputs": [
        {
          "internalType": "address",
          "name": "newOwner",
          "type": "address"
        }
      ],
      "name": "transferOwnership",
      "outputs": [],
      "stateMutability": "nonpayable",
      "type": "function"
    },
    {
      "inputs": [
        {
          "internalType": "address",
          "name": "_owner",
          "type": "address"
        }
      ],
      "name": "balanceOf",
      "outputs": [
        {
          "internalType": "uint256",
          "name": "",
          "type": "uint256"
        }
      ],
      "stateMutability": "view",
      "type": "function"
    },
    {
      "inputs": [
        {
          "internalType": "uint256",
          "name": "_tokenId",
          "type": "uint256"
        }
      ],
      "name": "ownerOf",
      "outputs": [
        {
          "internalType": "address",
          "name": "",
          "type": "address"
        }
      ],
      "stateMutability": "view",
      "type": "function"
    },
    {
      "inputs": [
        {
          "internalType": "address",
          "name": "_from",
          "type": "address"
        },
        {
          "internalType": "address",
          "name": "_to",
          "type": "address"
        },
        {
          "internalType": "uint256",
          "name": "_tokenId",
          "type": "uint256"
        }
      ],
      "name": "transferFrom",
      "outputs": [],
      "stateMutability": "payable",
      "type": "function"
    },
    {
      "inputs": [
        {
          "internalType": "address",
          "name": "_approved",
          "type": "address"
        },
        {
          "internalType": "uint256",
          "name": "_tokenId",
          "type": "uint256"
        }
      ],
      "name": "approve",
      "outputs": [],
      "stateMutability": "payable",
      "type": "function"
    },
    {
      "inputs": [
        {
          "internalType": "uint256",
          "name": "_tokenId",
          "type": "uint256"
        }
      ],
      "name": "mintNftStatus",
      "outputs": [
        {
          "components": [
            {
              "internalType": "bool",
              "name": "hasInitialled",
              "type": "bool"
            },
            {
              "internalType": "bool",
              "name": "hasFollowed",
              "type": "bool"
            },
            {
              "internalType": "bool",
              "name": "hasSharedFbPost",
              "type": "bool"
            }
          ],
          "internalType": "struct OrisNFTOwnerShip.MIntTask",
          "name": "",
          "type": "tuple"
        }
      ],
      "stateMutability": "view",
      "type": "function"
    },
    {
      "inputs": [
        {
          "internalType": "uint256",
          "name": "_tokenId",
          "type": "uint256"
        }
      ],
      "name": "beginMint",
      "outputs": [],
      "stateMutability": "nonpayable",
      "type": "function"
    },
    {
      "inputs": [
        {
          "internalType": "uint256",
          "name": "_tokenId",
          "type": "uint256"
        }
      ],
      "name": "hasFollowedFb",
      "outputs": [],
      "stateMutability": "nonpayable",
      "type": "function"
    },
    {
      "inputs": [
        {
          "internalType": "uint256",
          "name": "_tokenId",
          "type": "uint256"
        }
      ],
      "name": "hasSharedFbPost",
      "outputs": [],
      "stateMutability": "nonpayable",
      "type": "function"
    },
    {
      "inputs": [
        {
          "internalType": "uint256",
          "name": "_tokenId",
          "type": "uint256"
        }
      ],
      "name": "claimOrisNft",
      "outputs": [],
      "stateMutability": "nonpayable",
      "type": "function"
    }
  ],
  "bytecode": "0x608060405234801561000f575f80fd5b50335f806101000a81548173ffffffffffffffffffffffffffffffffffffffff021916908373ffffffffffffffffffffffffffffffffffffffff1602179055505f8054906101000a900473ffffffffffffffffffffffffffffffffffffffff1673ffffffffffffffffffffffffffffffffffffffff165f73ffffffffffffffffffffffffffffffffffffffff167f8be0079c531659141344cd1fd0a4f28419497f9722a3daafe3b4186f6b6457e060405160405180910390a3612228806100d55f395ff3fe6080604052600436106100fd575f3560e01c8063715018a6116100945780638f32d59b116100635780638f32d59b146103095780639648916b14610333578063f2fde38b1461036f578063fb4b90e114610397578063ffa848d2146103d3576100fd565b8063715018a6146102655780637fa150311461027b57806381307ab1146102b75780638da5cb5b146102df576100fd565b8063267a9e82116100d0578063267a9e821461019d5780635c30e0ab146101c55780636352211e146101ed57806370a0823114610229576100fd565b8063095ea7b31461010157806314a89d7f1461011d578063204ac7961461015957806323b872dd14610181575b5f80fd5b61011b6004803603810190610116919061174e565b6103fb565b005b348015610128575f80fd5b50610143600480360381019061013e919061178c565b610519565b6040516101509190611811565b60405180910390f35b348015610164575f80fd5b5061017f600480360381019061017a919061178c565b6105dd565b005b61019b6004803603810190610196919061182a565b6107ca565b005b3480156101a8575f80fd5b506101c360048036038101906101be91906119b6565b6108a7565b005b3480156101d0575f80fd5b506101eb60048036038101906101e6919061178c565b610a37565b005b3480156101f8575f80fd5b50610213600480360381019061020e919061178c565b610b5e565b6040516102209190611a0c565b60405180910390f35b348015610234575f80fd5b5061024f600480360381019061024a9190611a25565b610b97565b60405161025c9190611a5f565b60405180910390f35b348015610270575f80fd5b50610279610bdd565b005b348015610286575f80fd5b506102a1600480360381019061029c9190611a25565b610ca7565b6040516102ae9190611bd4565b60405180910390f35b3480156102c2575f80fd5b506102dd60048036038101906102d8919061178c565b610ee7565b005b3480156102ea575f80fd5b506102f361100e565b6040516103009190611a0c565b60405180910390f35b348015610314575f80fd5b5061031d611035565b60405161032a9190611c03565b60405180910390f35b34801561033e575f80fd5b506103596004803603810190610354919061178c565b61108a565b6040516103669190611a0c565b60405180910390f35b34801561037a575f80fd5b5061039560048036038101906103909190611a25565b6110ba565b005b3480156103a2575f80fd5b506103bd60048036038101906103b8919061178c565b6110d6565b6040516103ca9190611c43565b60405180910390f35b3480156103de575f80fd5b506103f960048036038101906103f4919061178c565b6111a0565b005b8060025f8281526020019081526020015f205f9054906101000a900473ffffffffffffffffffffffffffffffffffffffff1673ffffffffffffffffffffffffffffffffffffffff1661044b61100e565b73ffffffffffffffffffffffffffffffffffffffff161461046a575f80fd5b8260045f8481526020019081526020015f205f6101000a81548173ffffffffffffffffffffffffffffffffffffffff021916908373ffffffffffffffffffffffffffffffffffffffff160217905550818373ffffffffffffffffffffffffffffffffffffffff163373ffffffffffffffffffffffffffffffffffffffff167f8c5be1e5ebec7d5bd14f71427d1e84f3dd0314c0f7b2291e5b200ac8c7c3b92560405160405180910390a4505050565b610521611679565b5f60055f3373ffffffffffffffffffffffffffffffffffffffff1673ffffffffffffffffffffffffffffffffffffffff1681526020019081526020015f205f8481526020019081526020015f206040518060600160405290815f82015f9054906101000a900460ff161515151581526020015f820160019054906101000a900460ff161515151581526020015f820160029054906101000a900460ff1615151515815250509050805f01516105d4575f80fd5b80915050919050565b8060025f8281526020019081526020015f205f9054906101000a900473ffffffffffffffffffffffffffffffffffffffff1673ffffffffffffffffffffffffffffffffffffffff163373ffffffffffffffffffffffffffffffffffffffff160361067c576040517f08c379a000000000000000000000000000000000000000000000000000000000815260040161067390611ce3565b60405180910390fd5b60025f8381526020019081526020015f205f9054906101000a900473ffffffffffffffffffffffffffffffffffffffff1673ffffffffffffffffffffffffffffffffffffffff163373ffffffffffffffffffffffffffffffffffffffff16036106e3575f80fd5b5f60055f3373ffffffffffffffffffffffffffffffffffffffff1673ffffffffffffffffffffffffffffffffffffffff1681526020019081526020015f205f8481526020019081526020015f209050805f015f9054906101000a900460ff16801561075b5750805f0160019054906101000a900460ff165b80156107745750805f0160029054906101000a900460ff165b6107b3576040517f08c379a00000000000000000000000000000000000000000000000000000000081526004016107aa90611d71565b60405180910390fd5b6107c56107be61100e565b3385611330565b505050565b3373ffffffffffffffffffffffffffffffffffffffff1660025f8381526020019081526020015f205f9054906101000a900473ffffffffffffffffffffffffffffffffffffffff1673ffffffffffffffffffffffffffffffffffffffff16148061088f57503373ffffffffffffffffffffffffffffffffffffffff1660045f8381526020019081526020015f205f9054906101000a900473ffffffffffffffffffffffffffffffffffffffff1673ffffffffffffffffffffffffffffffffffffffff16145b610897575f80fd5b6108a2838383611330565b505050565b6108af611035565b6108b7575f80fd5b5f6040518060200160405280838152509050600181908060018154018082558091505060019003905f5260205f20015f909190919091505f820151815f0190816109019190611f89565b5050505f600180805490506109169190612085565b90503360025f8381526020019081526020015f205f6101000a81548173ffffffffffffffffffffffffffffffffffffffff021916908373ffffffffffffffffffffffffffffffffffffffff1602179055506109b8600160035f3373ffffffffffffffffffffffffffffffffffffffff1673ffffffffffffffffffffffffffffffffffffffff1681526020019081526020015f205461153690919063ffffffff16565b60035f3373ffffffffffffffffffffffffffffffffffffffff1673ffffffffffffffffffffffffffffffffffffffff1681526020019081526020015f20819055507f3308bb749c21adf7a042ec5a9f4e22732c5d56ada8ae501b97ff19ba7f9baf8f8184604051610a2a9291906120f0565b60405180910390a1505050565b8060025f8281526020019081526020015f205f9054906101000a900473ffffffffffffffffffffffffffffffffffffffff1673ffffffffffffffffffffffffffffffffffffffff163373ffffffffffffffffffffffffffffffffffffffff1603610ad6576040517f08c379a0000000000000000000000000000000000000000000000000000000008152600401610acd90611ce3565b60405180910390fd5b5f60055f3373ffffffffffffffffffffffffffffffffffffffff1673ffffffffffffffffffffffffffffffffffffffff1681526020019081526020015f205f8481526020019081526020015f209050805f015f9054906101000a900460ff16610b3d575f80fd5b6001815f0160016101000a81548160ff021916908315150217905550505050565b5f60025f8381526020019081526020015f205f9054906101000a900473ffffffffffffffffffffffffffffffffffffffff169050919050565b5f60035f8373ffffffffffffffffffffffffffffffffffffffff1673ffffffffffffffffffffffffffffffffffffffff1681526020019081526020015f20549050919050565b610be5611035565b610bed575f80fd5b5f73ffffffffffffffffffffffffffffffffffffffff165f8054906101000a900473ffffffffffffffffffffffffffffffffffffffff1673ffffffffffffffffffffffffffffffffffffffff167f8be0079c531659141344cd1fd0a4f28419497f9722a3daafe3b4186f6b6457e060405160405180910390a35f805f6101000a81548173ffffffffffffffffffffffffffffffffffffffff021916908373ffffffffffffffffffffffffffffffffffffffff160217905550565b60605f60035f8473ffffffffffffffffffffffffffffffffffffffff1673ffffffffffffffffffffffffffffffffffffffff1681526020019081526020015f205467ffffffffffffffff811115610d0157610d00611892565b5b604051908082528060200260200182016040528015610d3a57816020015b610d2761169d565b815260200190600190039081610d1f5790505b5090505f805b60035f8673ffffffffffffffffffffffffffffffffffffffff1673ffffffffffffffffffffffffffffffffffffffff1681526020019081526020015f2054811015610edc573373ffffffffffffffffffffffffffffffffffffffff1660025f8381526020019081526020015f205f9054906101000a900473ffffffffffffffffffffffffffffffffffffffff1673ffffffffffffffffffffffffffffffffffffffff1603610ec95760018181548110610dfc57610dfb61211e565b5b905f5260205f20016040518060200160405290815f82018054610e1e90611dbc565b80601f0160208091040260200160405190810160405280929190818152602001828054610e4a90611dbc565b8015610e955780601f10610e6c57610100808354040283529160200191610e95565b820191905f5260205f20905b815481529060010190602001808311610e7857829003601f168201915b505050505081525050838380610eaa9061214b565b945081518110610ebd57610ebc61211e565b5b60200260200101819052505b8080610ed49061214b565b915050610d40565b508192505050919050565b8060025f8281526020019081526020015f205f9054906101000a900473ffffffffffffffffffffffffffffffffffffffff1673ffffffffffffffffffffffffffffffffffffffff163373ffffffffffffffffffffffffffffffffffffffff1603610f86576040517f08c379a0000000000000000000000000000000000000000000000000000000008152600401610f7d90611ce3565b60405180910390fd5b5f60055f3373ffffffffffffffffffffffffffffffffffffffff1673ffffffffffffffffffffffffffffffffffffffff1681526020019081526020015f205f8481526020019081526020015f209050805f015f9054906101000a900460ff16610fed575f80fd5b6001815f0160026101000a81548160ff021916908315150217905550505050565b5f805f9054906101000a900473ffffffffffffffffffffffffffffffffffffffff16905090565b5f805f9054906101000a900473ffffffffffffffffffffffffffffffffffffffff1673ffffffffffffffffffffffffffffffffffffffff163373ffffffffffffffffffffffffffffffffffffffff1614905090565b6002602052805f5260405f205f915054906101000a900473ffffffffffffffffffffffffffffffffffffffff1681565b6110c2611035565b6110ca575f80fd5b6110d381611561565b50565b6110de61169d565b5f600183815481106110f3576110f261211e565b5b905f5260205f20016040518060200160405290815f8201805461111590611dbc565b80601f016020809104026020016040519081016040528092919081815260200182805461114190611dbc565b801561118c5780601f106111635761010080835404028352916020019161118c565b820191905f5260205f20905b81548152906001019060200180831161116f57829003601f168201915b505050505081525050905080915050919050565b8060025f8281526020019081526020015f205f9054906101000a900473ffffffffffffffffffffffffffffffffffffffff1673ffffffffffffffffffffffffffffffffffffffff163373ffffffffffffffffffffffffffffffffffffffff160361123f576040517f08c379a000000000000000000000000000000000000000000000000000000000815260040161123690611ce3565b60405180910390fd5b5f60405180606001604052805f151581526020015f151581526020015f15158152509050805f015115611270575f80fd5b6001815f0190151590811515815250508060055f3373ffffffffffffffffffffffffffffffffffffffff1673ffffffffffffffffffffffffffffffffffffffff1681526020019081526020015f205f8581526020019081526020015f205f820151815f015f6101000a81548160ff0219169083151502179055506020820151815f0160016101000a81548160ff0219169083151502179055506040820151815f0160026101000a81548160ff021916908315150217905550905050505050565b611381600160035f8573ffffffffffffffffffffffffffffffffffffffff1673ffffffffffffffffffffffffffffffffffffffff1681526020019081526020015f205461153690919063ffffffff16565b60035f8473ffffffffffffffffffffffffffffffffffffffff1673ffffffffffffffffffffffffffffffffffffffff1681526020019081526020015f2081905550611413600160035f3373ffffffffffffffffffffffffffffffffffffffff1673ffffffffffffffffffffffffffffffffffffffff1681526020019081526020015f205461165390919063ffffffff16565b60035f3373ffffffffffffffffffffffffffffffffffffffff1673ffffffffffffffffffffffffffffffffffffffff1681526020019081526020015f20819055508160025f8381526020019081526020015f205f6101000a81548173ffffffffffffffffffffffffffffffffffffffff021916908373ffffffffffffffffffffffffffffffffffffffff16021790555060045f8281526020019081526020015f205f6101000a81549073ffffffffffffffffffffffffffffffffffffffff0219169055808273ffffffffffffffffffffffffffffffffffffffff168473ffffffffffffffffffffffffffffffffffffffff167fddf252ad1be2c89b69c2b068fc378daa952ba7f163c4a11628f55a4df523b3ef60405160405180910390a4505050565b5f8082846115449190612192565b905083811015611557576115566121c5565b5b8091505092915050565b5f73ffffffffffffffffffffffffffffffffffffffff168173ffffffffffffffffffffffffffffffffffffffff1603611598575f80fd5b8073ffffffffffffffffffffffffffffffffffffffff165f8054906101000a900473ffffffffffffffffffffffffffffffffffffffff1673ffffffffffffffffffffffffffffffffffffffff167f8be0079c531659141344cd1fd0a4f28419497f9722a3daafe3b4186f6b6457e060405160405180910390a3805f806101000a81548173ffffffffffffffffffffffffffffffffffffffff021916908373ffffffffffffffffffffffffffffffffffffffff16021790555050565b5f82821115611665576116646121c5565b5b81836116719190612085565b905092915050565b60405180606001604052805f151581526020015f151581526020015f151581525090565b6040518060200160405280606081525090565b5f604051905090565b5f80fd5b5f80fd5b5f73ffffffffffffffffffffffffffffffffffffffff82169050919050565b5f6116ea826116c1565b9050919050565b6116fa816116e0565b8114611704575f80fd5b50565b5f81359050611715816116f1565b92915050565b5f819050919050565b61172d8161171b565b8114611737575f80fd5b50565b5f8135905061174881611724565b92915050565b5f8060408385031215611764576117636116b9565b5b5f61177185828601611707565b92505060206117828582860161173a565b9150509250929050565b5f602082840312156117a1576117a06116b9565b5b5f6117ae8482850161173a565b91505092915050565b5f8115159050919050565b6117cb816117b7565b82525050565b606082015f8201516117e55f8501826117c2565b5060208201516117f860208501826117c2565b50604082015161180b60408501826117c2565b50505050565b5f6060820190506118245f8301846117d1565b92915050565b5f805f60608486031215611841576118406116b9565b5b5f61184e86828701611707565b935050602061185f86828701611707565b92505060406118708682870161173a565b9150509250925092565b5f80fd5b5f80fd5b5f601f19601f8301169050919050565b7f4e487b71000000000000000000000000000000000000000000000000000000005f52604160045260245ffd5b6118c882611882565b810181811067ffffffffffffffff821117156118e7576118e6611892565b5b80604052505050565b5f6118f96116b0565b905061190582826118bf565b919050565b5f67ffffffffffffffff82111561192457611923611892565b5b61192d82611882565b9050602081019050919050565b828183375f83830152505050565b5f61195a6119558461190a565b6118f0565b9050828152602081018484840111156119765761197561187e565b5b61198184828561193a565b509392505050565b5f82601f83011261199d5761199c61187a565b5b81356119ad848260208601611948565b91505092915050565b5f602082840312156119cb576119ca6116b9565b5b5f82013567ffffffffffffffff8111156119e8576119e76116bd565b5b6119f484828501611989565b91505092915050565b611a06816116e0565b82525050565b5f602082019050611a1f5f8301846119fd565b92915050565b5f60208284031215611a3a57611a396116b9565b5b5f611a4784828501611707565b91505092915050565b611a598161171b565b82525050565b5f602082019050611a725f830184611a50565b92915050565b5f81519050919050565b5f82825260208201905092915050565b5f819050602082019050919050565b5f81519050919050565b5f82825260208201905092915050565b5f5b83811015611ad8578082015181840152602081019050611abd565b5f8484015250505050565b5f611aed82611aa1565b611af78185611aab565b9350611b07818560208601611abb565b611b1081611882565b840191505092915050565b5f602083015f8301518482035f860152611b358282611ae3565b9150508091505092915050565b5f611b4d8383611b1b565b905092915050565b5f602082019050919050565b5f611b6b82611a78565b611b758185611a82565b935083602082028501611b8785611a92565b805f5b85811015611bc25784840389528151611ba38582611b42565b9450611bae83611b55565b925060208a01995050600181019050611b8a565b50829750879550505050505092915050565b5f6020820190508181035f830152611bec8184611b61565b905092915050565b611bfd816117b7565b82525050565b5f602082019050611c165f830184611bf4565b92915050565b5f602083015f8301518482035f860152611c368282611ae3565b9150508091505092915050565b5f6020820190508181035f830152611c5b8184611c1c565b905092915050565b5f82825260208201905092915050565b7f5468652073656e646572206d757374206e6f74206265206f776e6572206f66205f8201527f7468697320746f6b656e00000000000000000000000000000000000000000000602082015250565b5f611ccd602a83611c63565b9150611cd882611c73565b604082019050919050565b5f6020820190508181035f830152611cfa81611cc1565b9050919050565b7f596f75206d75737420666f6c6c6f7720666220616e64207368617265206120705f8201527f6f73742100000000000000000000000000000000000000000000000000000000602082015250565b5f611d5b602483611c63565b9150611d6682611d01565b604082019050919050565b5f6020820190508181035f830152611d8881611d4f565b9050919050565b7f4e487b71000000000000000000000000000000000000000000000000000000005f52602260045260245ffd5b5f6002820490506001821680611dd357607f821691505b602082108103611de657611de5611d8f565b5b50919050565b5f819050815f5260205f209050919050565b5f6020601f8301049050919050565b5f82821b905092915050565b5f60088302611e487fffffffffffffffffffffffffffffffffffffffffffffffffffffffffffffffff82611e0d565b611e528683611e0d565b95508019841693508086168417925050509392505050565b5f819050919050565b5f611e8d611e88611e838461171b565b611e6a565b61171b565b9050919050565b5f819050919050565b611ea683611e73565b611eba611eb282611e94565b848454611e19565b825550505050565b5f90565b611ece611ec2565b611ed9818484611e9d565b505050565b5b81811015611efc57611ef15f82611ec6565b600181019050611edf565b5050565b601f821115611f4157611f1281611dec565b611f1b84611dfe565b81016020851015611f2a578190505b611f3e611f3685611dfe565b830182611ede565b50505b505050565b5f82821c905092915050565b5f611f615f1984600802611f46565b1980831691505092915050565b5f611f798383611f52565b9150826002028217905092915050565b611f9282611aa1565b67ffffffffffffffff811115611fab57611faa611892565b5b611fb58254611dbc565b611fc0828285611f00565b5f60209050601f831160018114611ff1575f8415611fdf578287015190505b611fe98582611f6e565b865550612050565b601f198416611fff86611dec565b5f5b8281101561202657848901518255600182019150602085019450602081019050612001565b86831015612043578489015161203f601f891682611f52565b8355505b6001600288020188555050505b505050505050565b7f4e487b71000000000000000000000000000000000000000000000000000000005f52601160045260245ffd5b5f61208f8261171b565b915061209a8361171b565b92508282039050818111156120b2576120b1612058565b5b92915050565b5f6120c282611aa1565b6120cc8185611c63565b93506120dc818560208601611abb565b6120e581611882565b840191505092915050565b5f6040820190506121035f830185611a50565b818103602083015261211581846120b8565b90509392505050565b7f4e487b71000000000000000000000000000000000000000000000000000000005f52603260045260245ffd5b5f6121558261171b565b91507fffffffffffffffffffffffffffffffffffffffffffffffffffffffffffffffff820361218757612186612058565b5b600182019050919050565b5f61219c8261171b565b91506121a78361171b565b92508282019050808211156121bf576121be612058565b5b92915050565b7f4e487b71000000000000000000000000000000000000000000000000000000005f52600160045260245ffdfea26469706673582212206e09bf9c3cbc13f2a6871852023443b3f33a261cb400a0cb37f16c0f093efe2964736f6c63430008150033",
  "immutableReferences": {},
  "source": "// SPDX-License-Identifier: Unlicense\r\npragma solidity >=0.8.19;\r\n\r\nimport \"./erc721.sol\";\r\nimport \"./safemath.sol\";\r\nimport \"./nftfactory.sol\";\r\n\r\ncontract OrisNFTOwnerShip is NFTFactory, ERC721 {\r\n    using SafeMath for uint256;\r\n\r\n    mapping(uint => address) orisNftApprovals;\r\n\r\n    modifier onlyOwnerOf(uint _tokenId) {\r\n        require(owner() == orisNftToOwner[_tokenId]);\r\n        _;\r\n    }\r\n\r\n    modifier notOfSender(uint _tokenId) {\r\n        require(\r\n            msg.sender != orisNftToOwner[_tokenId],\r\n            \"The sender must not be owner of this token\"\r\n        );\r\n        _;\r\n    }\r\n\r\n    function balanceOf(\r\n        address _owner\r\n    ) external view override returns (uint256) {\r\n        return ownerOrisNftCnt[_owner];\r\n    }\r\n\r\n    function ownerOf(\r\n        uint256 _tokenId\r\n    ) external view override returns (address) {\r\n        return orisNftToOwner[_tokenId];\r\n    }\r\n\r\n    function _transfer(address _from, address _to, uint256 _tokenId) private {\r\n        ownerOrisNftCnt[_to] = ownerOrisNftCnt[_to].add(1);\r\n        ownerOrisNftCnt[msg.sender] = ownerOrisNftCnt[msg.sender].sub(1);\r\n        orisNftToOwner[_tokenId] = _to;\r\n        delete orisNftApprovals[_tokenId];\r\n        emit Transfer(_from, _to, _tokenId);\r\n    }\r\n\r\n    function transferFrom(\r\n        address _from,\r\n        address _to,\r\n        uint256 _tokenId\r\n    ) external payable override {\r\n        require(\r\n            orisNftToOwner[_tokenId] == msg.sender ||\r\n                orisNftApprovals[_tokenId] == msg.sender\r\n        );\r\n        _transfer(_from, _to, _tokenId);\r\n    }\r\n\r\n    function approve(\r\n        address _approved,\r\n        uint256 _tokenId\r\n    ) external payable override onlyOwnerOf(_tokenId) {\r\n        orisNftApprovals[_tokenId] = _approved;\r\n        emit Approval(msg.sender, _approved, _tokenId);\r\n    }\r\n\r\n    struct MIntTask {\r\n        bool hasInitialled;\r\n        bool hasFollowed;\r\n        bool hasSharedFbPost;\r\n    }\r\n\r\n    mapping(address => mapping(uint => MIntTask)) mintUsers;\r\n\r\n    function mintNftStatus(\r\n        uint _tokenId\r\n    ) public view returns (MIntTask memory) {\r\n        MIntTask memory task = mintUsers[msg.sender][_tokenId];\r\n        require(task.hasInitialled);\r\n        return task;\r\n    }\r\n\r\n    function beginMint(uint _tokenId) public notOfSender(_tokenId) {\r\n        MIntTask memory task = MIntTask(false, false, false);\r\n        require(!task.hasInitialled);\r\n        task.hasInitialled = true;\r\n        mintUsers[msg.sender][_tokenId] = task;\r\n    }\r\n\r\n    function hasFollowedFb(uint _tokenId) public notOfSender(_tokenId) {\r\n        MIntTask storage task = mintUsers[msg.sender][_tokenId];\r\n        require(task.hasInitialled);\r\n        task.hasFollowed = true;\r\n    }\r\n\r\n    function hasSharedFbPost(uint _tokenId) public notOfSender(_tokenId) {\r\n        MIntTask storage task = mintUsers[msg.sender][_tokenId];\r\n        require(task.hasInitialled);\r\n        task.hasSharedFbPost = true;\r\n    }\r\n\r\n    function claimOrisNft(uint _tokenId) public notOfSender(_tokenId) {\r\n        require(msg.sender != orisNftToOwner[_tokenId]);\r\n        MIntTask storage task = mintUsers[msg.sender][_tokenId];\r\n        require(task.hasInitialled && task.hasFollowed && task.hasSharedFbPost, \"You must follow fb and share a post!\");\r\n        _transfer(owner(), msg.sender, _tokenId);\r\n    }\r\n}\r\n",
  "sourcePath": "C:\\Users\\Shiki\\Desktop\\Etherum learning\\truffle\\mintorisnft\\contracts\\OrisNFTOwnerShip.sol",
  "compiler": {
    "name": "solc",
    "version": "0.8.21+commit.d9974bed.Emscripten.clang"
  },
  "schemaVersion": "3.4.16",
  "updatedAt": "2024-01-04T09:22:01.616Z",
  "devdoc": {
    "kind": "dev",
    "methods": {
      "isOwner()": {
        "returns": {
          "_0": "true if `msg.sender` is the owner of the contract."
        }
      },
      "owner()": {
        "returns": {
          "_0": "the address of the owner."
        }
      },
      "renounceOwnership()": {
        "details": "Allows the current owner to relinquish control of the contract."
      },
      "transferOwnership(address)": {
        "details": "Allows the current owner to transfer control of the contract to a newOwner.",
        "params": {
          "newOwner": "The address to transfer ownership to."
        }
      }
    },
    "version": 1
  },
  "userdoc": {
    "kind": "user",
    "methods": {
      "renounceOwnership()": {
        "notice": "Renouncing to ownership will leave the contract without an owner. It will not be possible to call the functions with the `onlyOwner` modifier anymore."
      }
    },
    "version": 1
  }
}